:020000040800F2
:1000000000280020191800081D13000823130008F9
:10001000291300082F130008351300080000000002
:100020000000000000000000000000003B1300087A
:100030004713000800000000531300085F13000876
:1000400061180008611800086118000861180008AC
:10005000611800086118000861180008611800089C
:10006000611800086118000861180008611800088C
:10007000611800086118000861180008611800087C
:10008000611800086118000861180008611800086C
:10009000611800086118000861180008611800085C
:1000A000611800086118000861180008611800084C
:1000B0006D130008611800080000000061180008B6
:1000C000611800080000000000000000611800082E
:1000D000000000006118000861180008000000001E
:1000E000611800086118000861180008000000008D
:1000F0000000000000000000000000000000000000
:0C01000000000000000000005FF808F1A3
:10010C0010B5054C237833B9044B13B10448AFF345
:10011C0000800123237010BD880000200000000027
:10012C000831000808B5034B1BB103490348AFF372
:10013C00008008BD000000008C0000200831000881
:10014C0080B500AF354B1B78002B64D1002000F03C
:10015C007BF90346012B3BD1304B01221A70304BFB
:10016C0000221A602F4B00221A602F4B1B682F4A5B
:10017C001360012208212E4801F071FE012220217A
:10018C002B4801F06CFE01221021294801F067FE7A
:10019C0001224021264801F062FE01224FF48071B9
:1001AC00234801F05CFE01228021214801F057FE1A
:1001BC00002000F06DF9012000F06AF9022000F037
:1001CC0067F9012000F078F9022000F075F923E0BE
:1001DC00154B1A68174B1B689A4219DC08211448F6
:1001EC0001F055FE2021124801F051FE102110485B
:1001FC0001F04DFE40210E4801F049FE4FF4807194
:10020C000B4801F044FE8021094801F040FE03E058
:10021C0001F0ECF800E000BF80BD00BF4001002001
:10022C0034010020380100201C0000203001002087
:10023C00000C01402000002080B483B000AF0023EC
:10024C007B600CE00A4A7B68134401221A70094A4D
:10025C007B68134401221A707B6801337B607B68D6
:10026C00022BEFDD00BF00BF0C37BD4680BC7047D2
:10027C00A4000020A800002080B582B000AF0023AD
:10028C007B6087E0484A7B6852F8232047497B68AB
:10029C0031F813301946104601F0CAFD0346FB70C5
:1002AC00434A7B6813441B78FA789A420AD0414A35
:1002BC007B68002122F813103D4A7B681344FA78BE
:1002CC001A7064E03C4A7B6813441B78FA789A42B3
:1002DC002FD0384A7B6832F81330092B0AD8354AAC
:1002EC007B6832F813300A3399B2324A7B6822F8B1
:1002FC0013104CE0304A7B681344FA781A70FB7880
:10030C00002B0BD12D4A7B6813441B780133D9B2D7
:10031C002A4A7B6813440A461A7038E0284A7B68DC
:10032C00134400221A70274A7B68002122F813100C
:10033C002DE0214A7B6813441B78002B27D1214ADE
:10034C007B6832F81330B3F5FA7F0AD21D4A7B680A
:10035C0032F813300A3399B21A4A7B6822F8131018
:10036C0015E0174A7B6813441B78002B0FD1164AF3
:10037C007B6813441B780133D9B2134A7B6813444E
:10038C000A461A700E4A7B68134401221A707B6865
:10039C0001337B607B68022B7FF774AF00BF00BF1B
:1003AC000837BD4680BD00BF0800002000000020BB
:1003BC00A8000020AC000020A4000020BC000020FD
:1003CC00C0000020B4000020C400002080B483B022
:1003DC0000AF78607B68022B01DDFF2308E0074A41
:1003EC007B6813441B78012B0CBF01230023DBB269
:1003FC0018460C37BD4680BC704700BFC0000020BB
:10040C0080B483B000AF78607B68022B01DD0023E1
:10041C0013E00C4A7B6813441B78002B01D100239A
:10042C000BE0084A7B6813441B78013BD9B2054AA0
:10043C007B6813440A461A70012318460C37BD46D4
:10044C0080BC7047BC00002080B483B000AF7860E3
:10045C007B68022B01DD002313E00C4A7B681344FC
:10046C001B78002B01D100230BE0084A7B68134456
:10047C001B78013BD9B2054A7B6813440A461A70B3
:10048C00012318460C37BD4680BC7047C4000020C1
:10049C0080B483B000AF78607B68022B05DC054A22
:1004AC007B68134400221A7000E000BF0C37BD4675
:1004BC0080BC7047BC00002080B483B000AF786073
:1004CC007B68022B05DC054A7B68134400221A70FA
:1004DC0000E000BF0C37BD4680BC7047C400002054
:1004EC0080B582B000AFA84B1B78002B00F0628166
:1004FC00A54B1B78032B00F09F80032B00F3CD80C2
:10050C00012B02D0022B4CD0C7E00020FFF79CFF40
:10051C000346012B29D19C4B02221A709B4B1B6862
:10052C009B4A13609B4B00221A60012208219A48B7
:10053C0001F095FC01222021974801F090FC01224A
:10054C001021954801F08BFC01224021924801F0CA
:10055C0086FC01224FF480718F4801F080FC01224F
:10056C0080218D4801F07BFC25E10220FFF748FF3C
:10057C000346012B04D1864B1B68884A13601AE191
:10058C00874B1B68042B40F38380854B00221A6039
:10059C000821814801F07BFC40217F4801F077FC69
:1005AC0076E00020FFF750FF0346012B29D1764B54
:1005BC0003221A707B4B1B68754A1360754B002223
:1005CC001A6001220821744801F049FC0122202103
:1005DC00714801F044FC012210216F4801F03FFCEE
:1005EC00012240216C4801F03AFC01224FF4807149
:1005FC00694801F034FC01228021674801F02FFC8E
:10060C00D9E00220FFF7FCFE0346012B04D1604B1E
:10061C001B685E4A1360CEE0614B1B68042B39DD0E
:10062C005F4B00221A6010215B4801F030FC8021E6
:10063C00594801F02CFC2DE00020FFF705FF034684
:10064C00012B03D1504B00221A70B4E00220FFF7AB
:10065C00D7FE0346012B0AD14D4B1B68514A136040
:10066C004C4B00221A60504B00221A60A3E04C4BFA
:10067C001B68042B10DD4A4B00221A6020214648CF
:10068C0001F005FC4FF48071434801F000FC03E0DD
:10069C0000BF02E000BF00E000BF444B00229A60A4
:1006AC00394B1B781A46414BDA60394B1B68404A70
:1006BC0082FB0312D210DB17D31A7B607B683C4A97
:1006CC0082FB03129210DB17D31A384A1360796835
:1006DC00374B83FB01239A10CB17D21A13469B007E
:1006EC0013445B00CA1A314B5A600020FFF788FE96
:1006FC000346012B0CD1264B1B68143B244A136078
:10070C00234B1B68002B03DC214B40F2BC721A609C
:10071C000120FFF775FE0346012B0DD11C4B1B6806
:10072C0014331B4A13601A4B1B6840F2BC72934281
:10073C0002DD174B14221A600120FFF747FE034617
:10074C00012B1AD1134B1B68012B11DD104B1B68AD
:10075C0014330F4A13600E4B1B6840F2BC72934269
:10076C0002DD0B4B14221A600A4B00221A6004E0C3
:10077C00084B1B680133074A1360094B1B68013394
:10078C00074A136017E000BF400100202000002042
:10079C0030010020C8000020000C01401C0000208B
:1007AC003C01002024000020340100202001002006
:1007BC006766666600BF0837BD4680BD80B582B0EF
:1007CC0000AF78607B68092B7BDC7B68002B78DBC7
:1007DC007B68012B02D07B68042B01D1012300E044
:1007EC000023DBB21A460121384801F038FB7B6844
:1007FC00052B02D07B68062B01D1012300E00023DE
:10080C00DBB21A460221314801F029FB7B68022B2E
:10081C000CBF01230023DBB21A4604212B4801F044
:10082C001EFB7B68012B05D07B68042B02D07B68F8
:10083C00072B01D1012300E00023DBB21A4608216B
:10084C00224801F00CFB7B68002B0AD07B68022B42
:10085C0007D07B68062B04D07B68082B01D00123C2
:10086C0000E00023DBB21A461021184801F0F7FA19
:10087C007B68012B08D07B68022B05D07B68032B8F
:10088C0002D07B68072B01D1012300E00023DBB2EF
:10089C001A464FF400610D4801F0E1FA7B68002B19
:1008AC0005D07B68012B02D07B68072B01D101237B
:1008BC0000E00023DBB21A464021044801F0CFFAD5
:1008CC0000E000BF0837BD4680BD00BF00080140F6
:1008DC0080B582B000AF78607B68032B19DC7B6835
:1008EC00002B16DB01224FF4F0610C4801F0B7FA33
:1008FC000B4A7B6852F823301846FFF75FFF094A12
:10090C007B6832F8133000221946044801F0A7FA2C
:10091C0000E000BF0837BD4680BD00BF00080140A5
:10092C00200100201400002080B500AFFFF784FCEC
:10093C0000BF80BD80B500AF084B1B68032B02DDE8
:10094C00064B00221A60054B1B685A1C03490A60AF
:10095C001846FFF7BDFF00BF80BD00BF1C01002083
:10096C0080B500AFFFF7ECFBFFF7BAFD00BF80BD11
:10097C0080B500AF2021024801F089FA00BF80BD8C
:10098C000008014080B582B000AF00F065FF00F0B8
:10099C0057F800F0DDF800F08FF8234801F0DAFE8C
:1009AC00FFF7C2FF00F0D0F90A220A211F4800F01D
:1009BC00E7FA0A2214211E4800F0E2FA32221E2124
:1009CC001C4800F0DDFA322232211B4800F0D8FA24
:1009DC004FF4FA724621194800F0D2FA03467B60B4
:1009EC0041F28831002000F0B9FB42F21071012075
:1009FC0000F0B4FB002000F005FC0346012B04D1F1
:100A0C007B689BB2184600F019FB012000F0FAFB42
:100A1C000346012B05D14FF4FA720A21074800F066
:100A2C00AFFA00F04DFAE5E744010020850200081A
:100A3C00B11100086D090008410900087D09000882
:100A4C0080B590B000AF07F118032822002118469A
:100A5C0002F0C8FA3B1D00221A605A609A60DA60F4
:100A6C001A610223BB610123BB621023FB620023CA
:100A7C007B6307F11803184601F03EFA0346002B7E
:100A8C0001D000F0C7F80F237B600023BB6000236C
:100A9C00FB6000233B6100237B613B1D002118465A
:100AAC0001F0ACFC0346002B01D000F0B3F800BF02
:100ABC004037BD4680BD000080B586B000AF07F161
:100ACC00080300221A605A609A60DA603B460022E2
:100ADC001A605A601D4B4FF080421A601B4B41F656
:100AEC003F725A60194B00229A60184B0922DA6047
:100AFC00164B00221A61154B00229A61134801F023
:100B0C00D9FD0346002B01D000F084F84FF480533C
:100B1C00BB6007F1080319460C4801F057FF034668
:100B2C00002B01D000F076F800233B6000237B60A3
:100B3C003B461946054802F02FF90346002B01D01D
:100B4C0000F068F800BF1837BD4680BD4401002096
:100B5C0080B586B000AF07F1080300221A605A6016
:100B6C009A60DA60284B9B69274A43F0040393612F
:100B7C00254B9B6903F004037B607B68224B9B69CC
:100B8C00214A43F0080393611F4B9B6903F0080350
:100B9C003B603B68002240F6FF711C4801F05FF996
:100BAC0000224FF4FC711A4801F059F940F6FF731A
:100BBC00BB600123FB6000233B6102237B6107F1D7
:100BCC0008031946114800F0B7FF0723BB60002348
:100BDC00FB6000233B6107F1080319460C4800F049
:100BEC00ABFF4FF4FC73BB600123FB6000233B6144
:100BFC0002237B6107F108031946054800F09CFFAE
:100C0C0000BF1837BD4680BD0010024000080140EF
:100C1C00000C014080B400AF72B600BFFEE780B597
:100C2C0084B000AF0346FB80082002F01FF9034696
:100C3C00FB60FB68002B01D1002306E0FB68FA88FF
:100C4C001A80FB6800225A60FB6818461037BD46B4
:100C5C0080BD000080B485B000AF7860384B1B6855
:100C6C00002B07D1364A7B681360354B1B6800227A
:100C7C005A6061E00023FB60314B1B68BB601BE0DA
:100C8C007B681B882F4A1B01134404331A68BB680A
:100C9C001B882C491B010B4404331B687968098899
:100CAC000846D21A274903010B4404331A60BB6867
:100CBC00FB60BB685B68BB60BB68002B0FD07B68BC
:100CCC001B88204A1B01134404331A68BB681B8819
:100CDC001C491B010B4404331B689A42D0D8BB68D7
:100CEC00002B16D0BB681B88164A1B011344043317
:100CFC001A687B681B8813491B010B4404331B685F
:100D0C00B96809880846D21A0E4903010B4404330A
:100D1C001A60FB68002B07D1094B1A687B685A6074
:100D2C00074A7B68136007E0FB685A687B685A6067
:100D3C00FB687A685A6000BF1437BD4680BC7047A8
:100D4C006C0300208C01002080B483B000AF194BE1
:100D5C0000221A60184B00221A60184B00221A80CD
:100D6C0000237B601DE0164A7B681B01134404338F
:100D7C0000221A60124A7B681B01134408330022BC
:100D8C001A600F4A7B681B0113440C3300221A7043
:100D9C000B4A7B681B01134400221A607B680133E9
:100DAC007B607B681D2BDEDD00BF00BF0C37BD46B2
:100DBC0080BC70476C03002070030020740300207B
:100DCC008C01002080B584B000AF394B1B88002B00
:100DDC0068D046E0374B1B681B88FB81FB89364982
:100DEC001A010A440C3212780132D1B2324A1B0178
:100DFC0013440C330A461A70FB891846FFF70FFF91
:100E0C00B8602E4B1A68BB685A602C4ABB681360DA
:100E1C00284B1B687B60274B1B685B68254A13605B
:100E2C00FB89254A1B01134408331B68002B0FD088
:100E3C00FA89FB89204912010A44083212681E49BA
:100E4C001B010B4404331A607868FFF703FF08E0BA
:100E5C00786802F013F8164B1B88013B9AB2144BBE
:100E6C001A80144B1B68002B09D0124B1B681B8873
:100E7C00114A1B01134404331B68002BAAD00D4BE1
:100E8C001B68002B10D00B4B1B681B880A491A01DE
:100E9C000A4404321268013A07491B010B4404331B
:100EAC001A6002E000BF00E000BF1037BD4680BDF5
:100EBC00740300206C0300208C01002070030020C0
:100ECC0080B584B000AF2C4B1B68FB604BE0FB681B
:100EDC001B882A4A1B0113441B689847FB681B8814
:100EEC0026491A010A440C321278013AD1B2234A2B
:100EFC001B0113440C330A461A70FB681B881F4AEB
:100F0C001B0113440C331B78002BE0D11A4B1B68CC
:100F1C00BB60194B1B687B6004E0BB687B60BB68E3
:100F2C005B68BB60BB68002B05D0BB681A88FB688C
:100F3C001B889A42F1D1BB68002B11D00E4B1B6859
:100F4C00BA689A4205D10C4B1B685B680A4A13605D
:100F5C0003E0BB685A687B685A60B86801F08EFF82
:100F6C00FB685B68FB60FB68002BC6D100F0EEF8F9
:100F7C0000BF1037BD4680BD700300208C010020DF
:100F8C0080B588B000AFF860B9607A60284B1B88D8
:100F9C001D2B01D91E2346E00023BB610CE0254A22
:100FAC00BB691B0113441B68002B02D1BB69FB619D
:100FBC0005E0BB690133BB61BB691D2BEFDDBB6871
:100FCC001D4AA2FB0323DA081A49FB691B010B44D7
:100FDC0004331A607B68184AA2FB0323DA0815490C
:100FEC00FB691B010B4408331A60124AFB691B0195
:100FFC001344FA681A600F4AFB691B0113440C3343
:10100C0000221A70FB699BB21846FFF708FE786144
:10101C007869FFF71FFE064B1B8801339AB2044B0D
:10102C001A80FB699BB218462037BD4680BD00BFB5
:10103C00740300208C010020CDCCCCCC80B584B0C6
:10104C0000AF0346FB803E4B1B68002B01D10023F5
:10105C0071E03B4B1B68FB60394B1B68BB6004E0C9
:10106C00BB68FB60BB685B68BB60BB68002B04D0D3
:10107C00BB681B88FA889A42F2D1BB68002B01D15D
:10108C00002358E02F4B1B88013B9AB22D4B1A8042
:10109C00BB685B68002B18D0BB685B681B882A4A4E
:1010AC001B01134404331A68BB681B8826491B01B7
:1010BC000B4404331B68B9684968098808461A440C
:1010CC00214903010B4404331A601D4B1B68BA6899
:1010DC009A4209D11A4B1B685B68194A1360B868AD
:1010EC0001F0CCFE012326E0BB685A68FB685A600D
:1010FC00BB681B88144A1B011344043300221A607A
:10110C00BB681B88104A1B011344083300221A6069
:10111C00BB681B880C4A1B0113440C3300221A7049
:10112C00BB681B88084A1B01134400221A60B8686C
:10113C0001F0A4FE012318461037BD4680BD00BF48
:10114C006C030020740300208C01002080B500AFDC
:10115C000121002000F0B4FE00BF80BD80B483B03C
:10116C0000AF786039607B68092B11DC3B680B4A57
:10117C0082FB03129210DB17D21A09497B6841F8E3
:10118C003320074A7B68DB00134400225A6000E0DE
:10119C0000BF0C37BD4680BC704700BF67666666F3
:1011AC00CC00002080B483B000AF00237B601DE036
:1011BC00134A7B6852F83330002B14DD104A7B68DD
:1011CC0052F833305A1E0E497B6841F833200C4AD2
:1011DC007B6852F83330002B05DC094A7B68DB0056
:1011EC00134401225A607B6801337B607B68092BB6
:1011FC00DEDD00BF00BF0C37BD4680BC704700BFB2
:10120C00CC00002080B483B000AF78607B68092BE1
:10121C0001DD00230FE00A4A7B68DB0013445B68A6
:10122C00012B07D1064A7B68DB00134400225A606D
:10123C00012300E0002318460C37BD4680BC7047E4
:10124C00CC00002080B582B000AF78607B681B6852
:10125C00B3F1804F01D1FFF7B5FD00BF0837BD4694
:10126C0080BD000080B485B000AF154B9B69144A5B
:10127C0043F001039361124B9B6903F00103BB60C4
:10128C00BB680F4BDB690E4A43F08053D3610C4BA8
:10129C00DB6903F080537B607B680A4B5B68FB6007
:1012AC00FB6823F0E063FB60FB6843F08063FB604A
:1012BC00044AFB68536000BF1437BD4680BC7047BE
:1012CC00001002400000014080B584B000AF78608F
:1012DC007B681B68B3F1804F13D10C4BDB690B4A55
:1012EC0043F00103D361094BDB6903F00103FB609D
:1012FC00FB68002200211C2000F0E7FB1C2000F002
:10130C0000FC00BF1037BD4680BD00BF001002407E
:10131C0080B400AFFEE780B400AFFEE780B400AF4E
:10132C00FEE780B400AFFEE780B400AFFEE780B408
:10133C0000AF00BFBD4680BC704780B400AF00BF9B
:10134C00BD4680BC704780B400AF00BFBD4680BCBA
:10135C00704780B500AF00F0C5FA00BF80BD00003B
:10136C0080B500AF024801F041FA00BF80BD00BF5C
:10137C004401002080B586B000AF7860144A154B4C
:10138C00D31A7B617B693B61134B1B68002B02D129
:10139C00114B124A1A60104B1A687B6813443A6955
:1013AC009A4207D201F036FE03460C221A604FF027
:1013BC00FF3309E0084B1B68FB60074B1A687B681E
:1013CC001344054A1360FB6818461837BD4680BDA8
:1013DC00002800200004000078030020C80400202E
:1013EC0080B400AF00BFBD4680BC704780B584B0F0
:1013FC0000AF9B4B1B68002B22D10022082199487F
:10140C0000F02DFD01222021964800F028FD01223C
:10141C001021944800F023FD01224021914800F056
:10142C001EFD00224FF480718E4800F018FD012241
:10143C0080218C4800F013FD8B4B00221A707FE04A
:10144C008A4B1A688A4B1B68D21A854B1B689A42C6
:10145C0022D100220821834800F001FD0122202125
:10146C00804800F0FCFC012210217E4800F0F7FCC3
:10147C00012240217B4800F0F2FC01224FF48071E4
:10148C00784800F0ECFC00228021764800F0E7FC64
:10149C00754B01221A7053E0714B1A68734B1B6821
:1014AC009A4222D1012208216E4800F0D8FC002279
:1014BC0020216C4800F0D3FC01221021694800F077
:1014CC00CEFC00224021674800F0C9FC01224FF4F9
:1014DC008071644800F0C3FC01228021614800F057
:1014EC00BEFC614B02221A702AE0604B1A68614BF9
:1014FC001B681A445A4B1B689A4221D101220821BD
:10150C00584800F0ACFC01222021564800F0A7FC02
:10151C0000221021534800F0A2FC00224021514827
:10152C0000F09DFC01224FF480714E4800F097FCB6
:10153C00012280214B4800F092FC4B4B03221A7085
:10154C004D4B1B68002B00F33381474B93F9003054
:10155C00002B45D1454B1A68414B1B68D31A474A9F
:10156C0082FB0312D210DB17D31A3B603B68434A51
:10157C0082FB03129210DB17D31A414A936039682D
:10158C003E4B83FB01239A10CB17D21A13469B00B8
:10159C0013445B00CA1A3A4BDA60354B1B68374A66
:1015AC0082FB0312D210DB179B1A3A6813443B6080
:1015BC003B68324A82FB03129210DB17D31A304A73
:1015CC00136039682D4B83FB01239A10CB17D21A69
:1015DC0013469B0013445B00CA1A294B5A60E4E083
:1015EC00214B93F90030012B4CD1204B1A681C4B2A
:1015FC001B68D31A214A82FB0312D210DB17D31AB1
:10160C007B607B681D4A82FB03129210DB17D31A96
:10161C001B4A93607968194B83FB01239A10CB17F3
:10162C00D21A13469B0013445B00CA1A144BDA609F
:10163C007B68124A82FB03129210DB17D31A104AF2
:10164C00136079680D4B83FB01239A10CB17D21AC8
:10165C0013469B0013445B00CA1A094B5A60A4E062
:10166C0034010020000C0140280000201C00002048
:10167C0020000020240000203801002067666666E8
:10168C0020010020594B93F90030022B48D1584BC4
:10169C001A68584B1B681A44574B1B68D31A574A85
:1016AC0082FB0312D210DB17D31ABB60BB68534A00
:1016BC0082FB03129210DB17D31A514A9360B9685C
:1016CC004E4B83FB01239A10CB17D21A13469B0067
:1016DC0013445B00CA1A4A4BDA604A4B1B68474AF0
:1016EC0082FB0312D210DB17D31ABA681344BB6007
:1016FC00BB68424A82FB03129210DB17D31A404A92
:10170C001360B9683D4B83FB01239A10CB17D21A97
:10171C0013469B0013445B00CA1A394B5A6044E0D1
:10172C00324B93F90030032B3FD1314B1A68314BBC
:10173C001B681A44334B1B681A442F4B1B68D31A73
:10174C002E4A82FB0312D210DB17D31AFB60FB6804
:10175C002A4A82FB03129210DB17D31A284A936091
:10176C00F968264B83FB01239A10CB17D21A134628
:10177C009B0013445B00CA1A214BDA60FB681F4ABA
:10178C0082FB03129210DB17D31A1D4A1360F968FF
:10179C001A4B83FB01239A10CB17D21A13469B00CA
:1017AC0013445B00CA1A164B5A60174B14221A606A
:1017BC00154B1B68013B144A13600F4B1B6801331C
:1017CC000D4A13600A4B1A680A4B1B681A440D4BDE
:1017DC001B681A44084B1B689A4202DC064B002219
:1017EC001A6000BF1037BD4680BD00BF2800002026
:1017FC001C0000202400002034010020676666666F
:10180C00200100202000002038010020FFF7E8FD17
:10181C000B480C490C4A002302E0D458C450043342
:10182C00C4188C42F9D3094A094C002301E0136017
:10183C000432A242FBD301F0F3FBFFF7A3F870478D
:10184C0000000020880000204C3100088800002097
:10185C00C8040020FEE7000080B500AF084B1B68F1
:10186C00074A43F010031360032000F023F90F2004
:10187C0000F008F8FFF7F6FC0023184680BD00BF07
:10188C000020024080B582B000AF7860124B1A681D
:10189C00124B1B7819464FF47A73B3FBF1F3B2FB7E
:1018AC00F3F3184600F03BF90346002B01D001235B
:1018BC000EE07B680F2B0AD8002279684FF0FF30BE
:1018CC0000F003F9064A7B681360002300E0012353
:1018DC0018460837BD4680BD2C000020340000207F
:1018EC003000002080B400AF054B1B781A46054B26
:1018FC001B681344034A136000BFBD4680BC70478D
:10190C00340000207C03002080B400AF024B1B6825
:10191C001846BD4680BC70477C03002080B485B05F
:10192C0000AF78607B6803F00703FB600C4BDB684F
:10193C00BB60BA684FF6FF031340BB60FB681A022A
:10194C00BB68134343F0BF6343F40033BB60044AEA
:10195C00BB68D36000BF1437BD4680BC704700BF66
:10196C0000ED00E080B400AF044BDB681B0A03F011
:10197C0007031846BD4680BC704700BF00ED00E071
:10198C0080B483B000AF0346FB7197F90730002B8E
:10199C000BDBFB7903F01F02064997F907305B0953
:1019AC00012000FA02F241F8232000BF0C37BD469B
:1019BC0080BC704700E100E080B483B000AF034608
:1019CC003960FB7197F90730002B0ADB3B68DAB200
:1019DC000C4997F907301201D2B20B4483F800235B
:1019EC000AE03B68DAB20849FB7903F00F03043BC9
:1019FC001201D2B20B441A7600BF0C37BD4680BC24
:101A0C00704700BF00E100E000ED00E080B489B059
:101A1C0000AFF860B9607A60FB6803F00703FB6104
:101A2C00FB69C3F10703042B28BF0423BB61FB69CB
:101A3C000433062B02D9FB69033B00E000237B61D6
:101A4C004FF0FF32BB6902FA03F3DA43BB681A406A
:101A5C007B699A404FF0FF317B6901FA03F3D9435C
:101A6C007B680B40134318462437BD4680BC704737
:101A7C0080B582B000AF78607B68013BB3F1807FAA
:101A8C0001D301230FE00A4A7B68013B53600F210D
:101A9C004FF0FF30FFF790FF054B00229A60044B8C
:101AAC0007221A60002318460837BD4680BD00BFC8
:101ABC0010E000E080B582B000AF78607868FFF786
:101ACC002DFF00BF0837BD4680BD80B586B000AF86
:101ADC000346B9607A60FB7300237B61FFF742FF1A
:101AEC0078617A68B9687869FFF790FF024697F9D0
:101AFC000F3011461846FFF75FFF00BF1837BD4681
:101B0C0080BD80B582B000AF0346FB7197F90730FA
:101B1C001846FFF735FF00BF0837BD4680BD80B5BE
:101B2C0082B000AF78607868FFF7A2FF03461846D2
:101B3C000837BD4680BD000080B48BB000AF786024
:101B4C00396000237B6200233B6261E101227B6AE6
:101B5C0002FA03F3FB613B681B68FA691340BB6133
:101B6C00BA69FB699A4240F050813B685B68974ABE
:101B7C0093425ED0954A934275D8954A934258D079
:101B8C00934A93426FD8934A934252D0914A9342CC
:101B9C0069D8914A93424CD08F4A934263D88F4A6A
:101BAC00934246D08D4A93425DD8122B2AD8122BE1
:101BBC0059D801A252F823F03F1C0008191C000848
:101BCC002B1C00086D1C0008731C0008731C0008FB
:101BDC00731C0008731C0008731C0008731C00089D
:101BEC00731C0008731C0008731C0008731C00088D
:101BFC00731C0008731C0008731C0008211C0008CF
:101C0C00351C0008764A934213D02CE03B68DB6805
:101C1C003B6229E03B68DB6804333B6224E03B68B1
:101C2C00DB6808333B621FE03B68DB680C333B62CC
:101C3C001AE03B689B68002B02D104233B6213E043
:101C4C003B689B68012B05D108233B627B68FA69D2
:101C5C001A6109E008233B627B68FA695A6103E068
:101C6C0000233B6200E000BFBB69FF2B01D87B68FF
:101C7C0001E07B6804337B61BB69FF2B02D87B6A74
:101C8C009B0002E07B6A083B9B003B617B691A6806
:101C9C000F213B6901FA03F3DB431A40396A3B69B4
:101CAC0001FA03F31A437B691A603B685B6803F023
:101CBC008053002B00F0A9804A4B9B69494A43F0A2
:101CCC0001039361474B9B6903F00103BB60BB6845
:101CDC00454A7B6A9B08023352F82330FB607B6ACF
:101CEC0003F003039B000F2202FA03F3DB43FA68B1
:101CFC001340FB607B683D4A93420DD07B683C4AA5
:101D0C00934207D07B683B4A934201D1022304E003
:101D1C00032302E0012300E000237A6A02F00302AD
:101D2C0092009340FA681343FB602F497B6A9B082F
:101D3C000233FA6841F823203B685B6803F4801394
:101D4C00002B06D02C4B9A682B49BB6913438B6034
:101D5C0006E0294B9A68BB69DB43274913408B602B
:101D6C003B685B6803F40013002B06D0224BDA6847
:101D7C002149BB691343CB6006E01F4BDA68BB6992
:101D8C00DB431D491340CB603B685B6803F40033B5
:101D9C00002B06D0184B5A681749BB6913434B608C
:101DAC0006E0154B5A68BB69DB43134913404B6083
:101DBC003B685B6803F48033002B1FD00E4B1A6812
:101DCC000D49BB6913430B601FE000BF00003210CC
:101DDC000000311000002210000021100000121031
:101DEC0000001110001002400000014000080140EA
:101DFC00000C014000100140000401400B4B1A681C
:101E0C00BB69DB43094913400B607B6A01337B627E
:101E1C003B681A687B6A22FA03F3002B7FF496AEB8
:101E2C0000BF00BF2C37BD4680BC7047000401408A
:101E3C0080B485B000AF78600B467B807B689A6875
:101E4C007B881340002B02D00123FB7301E000239D
:101E5C00FB73FB7B18461437BD4680BC704780B4BF
:101E6C0083B000AF78600B467B8013467B707B7829
:101E7C00002B03D07A887B681A6103E07B881A04F4
:101E8C007B681A6100BF0C37BD4680BC704780B4BC
:101E9C0085B000AF78600B467B807B68DB68FB60AD
:101EAC007A88FB6813401A04FB68D9437B880B4083
:101EBC001A437B681A6100BF1437BD4680BC70475B
:101ECC0080B483B000AF78600B46FB70094B1B6984
:101EDC00084A23F004031361FB78012B01D130BFB6
:101EEC0002E040BF20BF20BF00BF0C37BD4680BC06
:101EFC00704700BF00ED00E080B586B000AF7860A1
:101F0C007B68002B01D1012372E27B681B6803F014
:101F1C000103002B00F08780924B5B6803F00C03ED
:101F2C00042B0CD08F4B5B6803F00C03082B12D1E5
:101F3C008C4B5B6803F48033B3F5803F0BD1894B3A
:101F4C001B6803F40033002B6CD07B685B68002BA0
:101F5C0068D101234CE27B685B68B3F5803F06D106
:101F6C00804B1B687F4A43F4803313602EE07B6800
:101F7C005B68002B0CD17B4B1B687A4A23F48033B3
:101F8C001360784B1B68774A23F4802313601DE0A1
:101F9C007B685B68B3F5A02F0CD1724B1B68714A40
:101FAC0043F4802313606F4B1B686E4A43F48033F9
:101FBC0013600BE06B4B1B686A4A23F4803313608D
:101FCC00684B1B68674A23F4802313607B685B684B
:101FDC00002B13D0FFF798FC386108E0FFF794FC56
:101FEC0002463B69D31A642B01D9032300E25D4BF3
:101FFC001B6803F40033002BF0D014E0FFF784FCD3
:10200C00386108E0FFF780FC02463B69D31A642B69
:10201C0001D90323ECE1534B1B6803F40033002B71
:10202C00F0D100E000BF7B681B6803F00203002BBB
:10203C0063D04C4B5B6803F00C03002B0BD0494B6B
:10204C005B6803F00C03082B1CD1464B5B6803F454
:10205C008033002B16D1434B1B6803F00203002B7B
:10206C0005D07B681B69012B01D00123C0E13D4BDE
:10207C001B6823F0F8027B685B69DB00394913436A
:10208C000B603AE07B681B69002B20D0364B012299
:10209C001A60FFF739FC386108E0FFF735FC02469F
:1020AC003B69D31A022B01D90323A1E12D4B1B68E9
:1020BC0003F00203002BF0D02A4B1B6823F0F8022C
:1020CC007B685B69DB00274913430B6015E0264BEB
:1020DC0000221A60FFF718FC386108E0FFF714FCC7
:1020EC0002463B69D31A022B01D9032380E11D4B15
:1020FC001B6803F00203002BF0D17B681B6803F014
:10210C000803002B3AD07B689B69002B19D0174B26
:10211C0001221A60FFF7F8FB386108E0FFF7F4FBC7
:10212C0002463B69D31A022B01D9032360E10D4B04
:10213C005B6A03F00203002BF0D0012000F09CFA44
:10214C001CE00A4B00221A60FFF7DEFB38610FE03F
:10215C00FFF7DAFB02463B69D31A022B08D903239B
:10216C0046E100BF0010024000004242800442429F
:10217C00924B5B6A03F00203002BE9D17B681B686E
:10218C0003F00403002B00F0A6800023FB758B4B9F
:10219C00DB6903F08053002B0DD1884BDB69874A38
:1021AC0043F08053D361854BDB6903F08053BB60F4
:1021BC00BB680123FB75824B1B6803F48073002BF7
:1021CC0018D17F4B1B687E4A43F480731360FFF772
:1021DC009BFB386108E0FFF797FB02463B69D31A7B
:1021EC00642B01D9032303E1754B1B6803F4807343
:1021FC00002BF0D07B68DB68012B06D16F4B1B6A80
:10220C006E4A43F0010313622DE07B68DB68002B00
:10221C000CD16A4B1B6A694A23F001031362674BAA
:10222C001B6A664A23F0040313621CE07B68DB68BC
:10223C00052B0CD1614B1B6A604A43F004031362FB
:10224C005E4B1B6A5D4A43F0010313620BE05B4B70
:10225C001B6A5A4A23F001031362584B1B6A574AF4
:10226C0023F0040313627B68DB68002B15D0FFF7A7
:10227C004BFB38610AE0FFF747FB02463B69D31A78
:10228C0041F28832934201D90323B1E04B4B1B6AD4
:10229C0003F00203002BEED014E0FFF735FB38619E
:1022AC000AE0FFF731FB02463B69D31A41F2883250
:1022BC00934201D903239BE0404B1B6A03F00203BA
:1022CC00002BEED1FB7D012B05D13C4BDB693B4A4E
:1022DC0023F08053D3617B68DB69002B00F087808F
:1022EC00364B5B6803F00C03082B61D07B68DB6911
:1022FC00022B46D1334B00221A60FFF705FB3861E5
:10230C0008E0FFF701FB02463B69D31A022B01D907
:10231C0003236DE0294B1B6803F00073002BF0D1F5
:10232C007B681B6AB3F5803F08D1244B5B6823F4B0
:10233C0000327B689B68214913434B601F4B5B68E1
:10234C0023F474127B68196A7B685B6A0B431B4924
:10235C0013434B601B4B01221A60FFF7D5FA38610F
:10236C0008E0FFF7D1FA02463B69D31A022B01D9D8
:10237C0003233DE0114B1B6803F00073002BF0D0DE
:10238C0035E0104B00221A60FFF7BEFA386108E006
:10239C00FFF7BAFA02463B69D31A022B01D9032381
:1023AC0026E0064B1B6803F00073002BF0D11EE0F7
:1023BC007B68DB69012B07D1012319E00010024077
:1023CC0000700040600042420B4B5B68FB60FB6896
:1023DC0003F480327B681B6A9A4206D1FB6803F4D3
:1023EC0070127B685B6A9A4201D0012300E00023E3
:1023FC0018461837BD4680BD0010024080B584B029
:10240C0000AF786039607B68002B01D10123D0E0EC
:10241C006A4B1B6803F007033A689A4210D9674B62
:10242C001B6823F0070265493B6813430B60634B41
:10243C001B6803F007033A689A4201D00123B8E005
:10244C007B681B6803F00203002B20D07B681B68A1
:10245C0003F00403002B05D0594B5B68584A43F436
:10246C00E06353607B681B6803F00803002B05D006
:10247C00534B5B68524A43F460535360504B5B6858
:10248C0023F0F0027B689B684D4913434B607B68DB
:10249C001B6803F00103002B40D07B685B68012BA9
:1024AC0007D1474B1B6803F40033002B15D10123D4
:1024BC007FE07B685B68022B07D1414B1B6803F004
:1024CC000073002B09D1012373E03D4B1B6803F013
:1024DC000203002B01D101236BE0394B5B6823F025
:1024EC0003027B685B68364913434B60FFF70CFAB9
:1024FC00F8600AE0FFF708FA0246FB68D31A41F2CB
:10250C008832934201D9032353E02D4B5B6803F0CF
:10251C000C027B685B689B009A42EBD1274B1B68D3
:10252C0003F007033A689A4210D2244B1B6823F03D
:10253C00070222493B6813430B60204B1B6803F0D6
:10254C0007033A689A4201D0012332E07B681B688A
:10255C0003F00403002B08D0194B5B6823F4E062F2
:10256C007B68DB68164913434B607B681B6803F080
:10257C000803002B09D0124B5B6823F460527B6874
:10258C001B69DB000E4913434B6000F021F8024637
:10259C000B4B5B681B0903F00F030A49CB5C22FA57
:1025AC0003F3094A1360094B1B681846FFF76AF9D5
:1025BC00002318461037BD4680BD00BF00200240E6
:1025CC0000100240203100082C00002030000020B8
:1025DC0080B487B000AF0023FB600023BB600023F6
:1025EC007B6100237B6000233B611E4B5B68FB60BF
:1025FC00FB6803F00C03042B02D0082B03D027E05C
:10260C00194B3B6127E0FB689B0C03F00F03174A47
:10261C00D35C7B60FB6803F48033002B10D0114B30
:10262C005B685B0C03F00103114AD35CBB607B68F5
:10263C000D4A03FB02F2BB68B2FBF3F37B6104E0CF
:10264C007B680C4A02FB03F37B617B693B6102E014
:10265C00054B3B6100BF3B6918461C37BD4680BC2F
:10266C00704700BF0010024000127A0030310008A1
:10267C004031000800093D0080B485B000AF78609F
:10268C000A4B1B680A4AA2FB03235B0A7A6802FB0B
:10269C0003F3FB6000BFFB685A1EFA60002BF9D1F4
:1026AC0000BF00BF1437BD4680BC70472C00002013
:1026BC00D34D621080B582B000AF78607B68002B80
:1026CC0001D1012341E07B6893F83D30DBB2002B54
:1026DC0006D17B68002283F83C207868FEF7F4FD75
:1026EC007B68022283F83D207B681A687B68043380
:1026FC001946104600F056FA7B68012283F84620F2
:10270C007B68012283F83E207B68012283F83F20FE
:10271C007B68012283F840207B68012283F84120EA
:10272C007B68012283F842207B68012283F84320D6
:10273C007B68012283F844207B68012283F84520C2
:10274C007B68012283F83D20002318460837BD46DC
:10275C0080BD000080B485B000AF78607B6893F8D2
:10276C003D30DBB2012B01D0012335E07B68022226
:10277C0083F83D207B681B68DA687B681B6842F035
:10278C000102DA607B681B68164A934209D07B68A9
:10279C001B68B3F1804F04D07B681B68124A9342CC
:1027AC0011D17B681B689B6803F00703FB60FB6817
:1027BC00062B10D07B681B681A687B681B6842F07C
:1027CC0001021A6007E07B681B681A687B681B684B
:1027DC0042F001021A60002318461437BD4680BC33
:1027EC00704700BF002C01400004004080B584B04D
:1027FC0000AF78607B681B68DB68FB607B681B68DC
:10280C001B69BB60BB6803F00203002B20D0FB6884
:10281C0003F00203002B1BD07B681B686FF00202D5
:10282C001A617B6801221A777B681B689B6903F02D
:10283C000303002B03D0786800F098F905E0786862
:10284C0000F08BF9786800F09AF97B6800221A770F
:10285C00BB6803F00403002B20D0FB6803F00403D7
:10286C00002B1BD07B681B686FF004021A617B681D
:10287C0002221A777B681B689B6903F44073002B58
:10288C0003D0786800F072F905E0786800F065F91B
:10289C00786800F074F97B6800221A77BB6803F043
:1028AC000803002B20D0FB6803F00803002B1BD07F
:1028BC007B681B686FF008021A617B6804221A7728
:1028CC007B681B68DB6903F00303002B03D078687B
:1028DC0000F04CF905E0786800F03FF9786800F0FA
:1028EC004EF97B6800221A77BB6803F01003002BAB
:1028FC0020D0FB6803F01003002B1BD07B681B68F7
:10290C006FF010021A617B6808221A777B681B68CB
:10291C00DB6903F44073002B03D0786800F026F9D0
:10292C0005E0786800F019F9786800F028F97B6800
:10293C0000221A77BB6803F00103002B0CD0FB6854
:10294C0003F00103002B07D07B681B686FF00102BA
:10295C001A617868FEF776FCBB6803F08003002BE5
:10296C000CD0FB6803F08003002B07D07B681B683E
:10297C006FF080021A61786800F06FFABB6803F0A0
:10298C004003002B0CD0FB6803F04003002B07D056
:10299C007B681B686FF040021A61786800F0F8F8E9
:1029AC00BB6803F02003002B0CD0FB6803F0200362
:1029BC00002B07D07B681B686FF020021A617868C7
:1029CC0000F042FA00BF1037BD4680BD80B584B020
:1029DC0000AF786039600023FB737B6893F83C3060
:1029EC00012B01D10223B4E07B68012283F83C2047
:1029FC007B68022283F83D207B681B689B68BB6068
:102A0C00BB6823F07703BB60BB6823F47F43BB60D8
:102A1C007B681B68BA689A603B681B68B3F5005FFB
:102A2C003ED0B3F5005F00F28780B3F5805F00F015
:102A3C008680B3F5805F7FD8702B1AD0702B7BD833
:102A4C00602B50D0602B77D8502B3CD0502B73D8A8
:102A5C00402B58D0402B6FD8302B64D0302B6BD8F8
:102A6C00202B60D0202B67D8002B5CD0102B5AD099
:102A7C0062E07B6818683B6899683B685A683B68F9
:102A8C00DB6800F06AF97B681B689B68BB60BB68FD
:102A9C0043F07703BB607B681B68BA689A604FE0B1
:102AAC007B6818683B6899683B685A683B68DB68C8
:102ABC0000F053F97B681B689A687B681B6842F4CA
:102ACC0080429A603CE07B6818683B6859683B68B8
:102ADC00DB681A4600F0CAF87B681B685021184660
:102AEC0000F021F92CE07B6818683B6859683B685A
:102AFC00DB681A4600F0E8F87B681B686021184612
:102B0C0000F011F91CE07B6818683B6859683B6859
:102B1C00DB681A4600F0AAF87B681B68402118464F
:102B2C0000F001F90CE07B681A683B681B681946D9
:102B3C00104600F0F8F803E00123FB7300E000BF3F
:102B4C007B68012283F83D207B68002283F83C20BF
:102B5C00FB7B18461037BD4680BD80B483B000AFF8
:102B6C00786000BF0C37BD4680BC704780B483B022
:102B7C0000AF786000BF0C37BD4680BC704780B496
:102B8C0083B000AF786000BF0C37BD4680BC704787
:102B9C0080B483B000AF786000BF0C37BD4680BCFA
:102BAC007047000080B485B000AF786039607B68F6
:102BBC001B68FB607B682B4A934207D07B68B3F1A0
:102BCC00804F03D07B68284A934208D1FB6823F0DE
:102BDC007003FB603B685B68FA681343FB607B68BF
:102BEC00204A934207D07B68B3F1804F03D07B68B7
:102BFC001D4A934208D1FB6823F44073FB603B6889
:102C0C00DB68FA681343FB60FB6823F080023B68C7
:102C1C005B691343FB607B68FA681A603B689A68CF
:102C2C007B68DA623B681A687B689A627B680D4A3B
:102C3C00934203D13B681A697B681A637B68012253
:102C4C005A617B681B6903F00103002B05D07B687C
:102C5C001B6923F001027B681A6100BF1437BD4663
:102C6C0080BC7047002C01400004004080B487B049
:102C7C0000AFF860B9607A60FB681B6A7B61FB6827
:102C8C001B6A23F00102FB681A62FB689B693B61BB
:102C9C003B6923F0F0033B617B681B013A691343EA
:102CAC003B617B6923F00A037B617A69BB68134340
:102CBC007B61FB683A699A61FB687A691A6200BFAA
:102CCC001C37BD4680BC704780B487B000AFF8603D
:102CDC00B9607A60FB681B6A7B61FB681B6A23F036
:102CEC001002FB681A62FB689B693B613B6923F429
:102CFC0070433B617B681B033A6913433B617B69FF
:102D0C0023F0A0037B61BB681B017A6913437B61D1
:102D1C00FB683A699A61FB687A691A6200BF1C37D2
:102D2C00BD4680BC704780B485B000AF7860396018
:102D3C007B689B68FB60FB6823F07003FB603A6860
:102D4C00FB68134343F00703FB607B68FA689A60E7
:102D5C0000BF1437BD4680BC704780B487B000AF4D
:102D6C00F860B9607A603B60FB689B687B617B694B
:102D7C0023F47F437B613B681A027B681A43BB6870
:102D8C0013437A6913437B61FB687A699A6000BFCD
:102D9C001C37BD4680BC704780B485B000AF7860EE
:102DAC0039607B6893F83C30012B01D1022341E060
:102DBC007B68012283F83C207B68022283F83D204B
:102DCC007B681B685B68FB607B681B689B68BB60EF
:102DDC00FB6823F07003FB603B681B68FA681343C5
:102DEC00FB607B681B68FA685A607B681B68144A36
:102DFC00934209D07B681B68B3F1804F04D07B6889
:102E0C001B68104A93420CD1BB6823F08003BB6053
:102E1C003B685B68BA681343BB607B681B68BA6825
:102E2C009A607B68012283F83D207B68002283F83E
:102E3C003C20002318461437BD4680BC704700BFA9
:102E4C00002C01400004004080B483B000AF7860D7
:102E5C0000BF0C37BD4680BC704780B483B000AF58
:102E6C00786000BF0C37BD4680BC7047024B0146F2
:102E7C00186800F02BB800BF84000020024B0146FC
:102E8C00186800F0F3B800BF8400002070B50E4E37
:102E9C000C463168054611B900F0ACF8306021469B
:102EAC00284600F0A7F8431C0AD0C41C24F00304E5
:102EBC00A04207D0211A284600F09CF8013001D11D
:102ECC004FF0FF34204670BD840300202DE9F843F9
:102EDC00CD1C25F0030508350C2D38BF0C25002D15
:102EEC00074601DBA94205D90C2300263B6030467E
:102EFC00BDE8F883DFF8D08000F068F8D8F800302F
:102F0C001C465CBB29463846FFF7C0FF431C0446F1
:102F1C0055D1D8F800402646002E45D1002C48D07B
:102F2C0023683146384604EB030900F063F8814509
:102F3C003FD1216838466D1A2946FFF7A7FF0130AB
:102F4C0037D023682B442360D8F80030002B38D0BE
:102F5C005A68A2422BD100225A600FE02268521B01
:102F6C001FD40B2A17D96119A342256018BF5960C9
:102F7C00636808BFC8F8001062514B60384604F112
:102F8C000B0600F029F826F00706231DF21AAED026
:102F9C009B1BA350ABE7A3426268DDD1C8F80020AD
:102FAC00ECE723466468ACE734467668B4E713462E
:102FBC00CCE70C2338463B6000F00EF897E7256011
:102FCC00DCE75B60FFDE00BF80030020014800F0FF
:102FDC004BB800BFC4040020014800F046B800BF45
:102FEC00C404002003460244934200D1704703F806
:102FFC00011BF9E738B50023054D044608462B6044
:10300C00FEF7B8F9431C02D12B6803B1236038BD1D
:10301C00C0040020014B1868704700BF84000020DA
:10302C0070B500260C4D0D4C641BA410A64209D1A2
:10303C0000F064F800260A4D0A4C641BA410A6424A
:10304C0005D170BD55F8043B98470136EEE755F8AD
:10305C00043B98470136F2E744310008443100083C
:10306C0044310008483100087047704738B50546B0
:10307C00002940D051F8043C0C1F002BB8BFE418B9
:10308C00FFF7A4FF1C4A136833B963601460284629
:10309C00BDE83840FFF7A0BFA34208D9206821182B
:1030AC008B4201BF19685B6809182160EDE71A466D
:1030BC005B680BB1A342FAD911685018A0420BD12E
:1030CC0020680144501883421160E0D118685B6895
:1030DC00084410605360DAE702D90C232B60D6E762
:1030EC00206821188B4201BF19685B6809182160A0
:1030FC0063605460CBE738BD80030020F8B500BF97
:10310C00F8BC08BC9E467047F8B500BFF8BC08BCBC
:04311C009E46704714
:103120000000000000000000010203040607080977
:1031300002030405060708090A0B0C0D0E0F1010F8
:043140000102000088
:04314400310100084D
:043148000D0100086D
:10314C000100020004000000000C0140000C0140D2
:10315C00000C01408000000100020004640000002B
:10316C00280000003C000000FF00000000127A0064
:10317C001000000001000000000000008803002087
:10318C00F0030020580400200000000000000000A4
:10319C000000000000000000000000000000000023
:1031AC000000000000000000000000000000000013
:1031BC000000000000000000000000000000000003
:0831CC000000000038000020A3
:0400000508001819BE
:00000001FF
